:1000000019C02DC0CCC357C32AC029C028C0AEC355
:1000100026C025C024C023C022C021C020C01FC0CC
:100020001EC01DC01CC01BC01AC019C04DC376C362
:1000300062C315C011241FBECFEFCDBFDFE3DEBF0B
:10004000E0E4F0E080818FEF80832FE3A0E0BFE366
:1000500001C01D92A031B207E1F746D0AFC3D0CFA7
:10006000E82FF92F242F352F6623F1F0808181119D
:1000700005C091E09083218332830895813021F07F
:10008000833071F080E0089541815281241B350B4B
:100090002032310510F480E0089592E090830895B5
:1000A00082E0808380E0089580818823C9F08130D8
:1000B00031F0823039F0833059F0862F0895108264
:1000C000862F089583E0808321833283862F0895CD
:1000D00081819281281B390B862F2032310508F44B
:1000E0000895108282E00895CDB7DEB76E97CDBF38
:1000F000DEBFE0E8F0E082E08183808791E09187D5
:10010000E0E0F4E0848380838BE0828B89E0838B62
:10011000878B90934701E0E4F1E0818980FDFDCF7A
:1001200081E080935201E0E4F1E0818980FDFDCF20
:1001300089E180935001E0E4F1E08189282F21706A
:100140002A8B80FDFACF88E080931604E0E0F8E087
:1001500021E635E02087318798EC958398ED9683EA
:1001600090E19093A000E0E0F6E094E0908392E5C7
:10017000928390E2938385838DE1868319821A822C
:100180001B821C821D821E821F8218861986109275
:100190000C3F78943A893F8B3E8B3D8B3C873B8765
:1001A000632E232E398B3A87332E3D87532E732EA1
:1001B000132F3E8F188E198E1E861F86912C812C30
:1001C0001B8A1C8A1A8E1B8E1C8E1D8EC12C689455
:1001D000DD24D2F844244394388B0F2EA12CF6E072
:1001E000BF2EF02DD8C1842D611080E0662049F02B
:1001F0004701F0EA8F1AF9E19F0A682E25E02A8765
:10020000DEC1682EDCC11092003F3D853111E0C196
:1002100081E08C874D86DCC1282EE3C188859985D5
:10022000F701E81BF90BCF018C3A934008F4DFC1CA
:1002300024E02F83511002C031E03B87F601828910
:10024000847F828B8081846080833888EE86FF86FD
:10025000542CCFC13320E1F0F60182898860828B73
:1002600080818B7F808386E18A95F1F78085F82FE6
:10027000F4703F2E82FF15C0F60182898360828B65
:100280001F82FA89FB873888EE86FF86532CB1C11E
:10029000C7012E853F85821B930B80389105E0F6C0
:1002A000A8C1F6018289877F828B808184608083E8
:1002B000EE86FF869EC1133009F06CC1772009F4E9
:1002C000DFC1C701881999098034910508F4D8C1A4
:1002D000FA85FF2351F0C701E88DF98D8E1B9F0B26
:1002E00078888034914008F4D9C17C8476287228BB
:1002F000FB857F2A09F05BC0F89480910D3F811146
:1003000031C09F819B7F29F589818D7F813091F15B
:100310008C818D7F813031F0552031F081E78093E1
:10032000500104C0892F15C01092500188ED84BF80
:10033000809161008860809361008091510180FD0F
:10034000FCCF88ED84BF80916100877F809361003E
:10035000842D95E0E0E5F0E0908378948895342C46
:1003600081110AC078947C867B86672C272C7A863C
:10037000172D10C1892FEDCF99E190935001F8947A
:1003800098ED94BF9091610098609093610078948B
:100390009091510190FDFCCFF89498ED94BF90910D
:1003A0006100977F909361007894382EDBCFF50140
:1003B0008081816080834086F50110851111FCCF1A
:1003C000908980818E7F8083963458F0903540F0FC
:1003D0001C871B87612E212E1A871D87712EDAC07C
:1003E0001D878091003F811101C0798AF6018481C7
:1003F0008D7F848310920A3F1F8B1E8B1D8B712E65
:100400004701F89480910A3F81110FC080910D3F00
:1004100081110BC080910C3F813009F440C083E012
:10042000E0E5F0E08083789488957894F989FF235B
:1004300049F0C701881999094E9720F01092003FA2
:100440002889298B80910A3F142D882309F4A2C0A2
:10045000F89400910B3F10920A3F7894102F177078
:10046000069506950695133009F4FBC0143009F47F
:1004700056C01130C1F048E050E06FE370E082E018
:100480009FE395D1E2E0FFE3118302831092013FE5
:1004900080910508806280930508142D7BC0E0E5FB
:1004A000F0E04082C0CFE2E0FFE382E080833D8D58
:1004B00031838C8D82839B8D93832A8D24833C8909
:1004C00035838B8986839E8D20E0911101C020E2C7
:1004D0009091003FE0E19E9FC0011124962D990F5D
:1004E000982B8C85880F880F982B822D880F880F6A
:1004F000880F892BFB858F2B822B8093093F1092CD
:10050000013F809105088062809305082C852F8B20
:10051000FE8B2D8A3A893C873B87232E3BC00230D5
:10052000F9F08A8D9B8D8F3F980719F001968A8F7D
:100530009B8F611003C0FA85FF5FFA872A852530FB
:1005400008F095C03D89232A8C859F89892B8C874B
:10055000EB85FE89EF2BEB87E88EF98E12E01AC04F
:100560008C8D9D8D8F3F980719F001968C8F9D8FF4
:10057000FE8DFF5FFE8FFA3008F475C02A892A8746
:10058000102F2E8F07C0F60184818260848347017B
:10059000742C13E0A895F89410920D3FF601008595
:1005A0000095E0900E3FF0900F3F7894602F6870B8
:1005B000A701CE01019654DD813009F414CEA701C4
:1005C000602F6078CE0104964BDD823009F41BCE9B
:1005D0000470A701602FCE01079642DD813009F437
:1005E0001BCE002321F08F81823009F417CE5110E9
:1005F00031CE123041F208F05ECE112309F475CEEF
:100600006110FFCEC701881999098C349D4108F407
:10061000F8CEF6018481826084832B893C892F3F48
:10062000320721F02F5F3F4F2B8B3C8B9A859F5FCA
:100630009A87953070F4ED892E2AFC852F89F22B4C
:10064000FC873B858E89382B3B87E88EF98E12E03C
:10065000A1CF6C866B86262CE88EF98E6A8612E016
:1006600099CF142D97CFFA89FA87102F93CF2A8923
:100670002C872B87222EE88EF98E2A8712E08ACFCC
:100680003A85332359F0C701288D398D821B930B8E
:100690008034914018F0772009F427CEF8948091A7
:1006A0000D3F811106C085E0E0E5F0E0808378949D
:1006B000889578946FCF8F938CE88093090481E0BC
:1006C00080930D3F8F9118951F921FB61F92112492
:1006D0008F939F939091000880910C3F811105C0EA
:1006E00090930B3F81E080930A3F9F918F911F90E1
:1006F0001FBE1F9018951F921FB61F9211248F9333
:1007000080E4809304088091013F883010F01092BB
:100710000C3F8F911F901FBE1F9018958F938FB71E
:100720008F93EF93FF938091013F8830C8F481E06D
:1007300080930C3FE091013FF0E0EE5FF04C808150
:10074000809302088091013F8F5F8093013F8091E9
:10075000013F883028F0E0E0F8E085818F7D8583D7
:10076000FF91EF918F918FBF8F9118952F932FB796
:100770002F938F939F9321E02093530180910E3FFD
:1007800090910F3F019680930E3F90930F3F2093DF
:100790000D3F9F918F912F912FBF2F9118958F9380
:1007A00081E080938A008093003F8F911895DC014F
:1007B00001C06D9341505040E0F70895F894FFCF89
:00000001FF
