:1000000019C02DC0B2C33EC32AC029C028C094C3A2
:1000100026C025C024C023C022C021C020C01FC0CC
:100020001EC01DC01CC01BC01AC019C033C35CC396
:1000300048C315C011241FBECFEFCDBFDFE3DEBF25
:10004000E0E4F0E080818FEF80832FE3A0E0BFE366
:1000500001C01D92A031B207E1F746D095C3D0CFC1
:10006000E82FF92F242F352F6623F1F0808181119D
:1000700005C091E09083218332830895813021F07F
:10008000833071F080E0089541815281241B350B4B
:100090002032310510F480E0089592E090830895B5
:1000A00082E0808380E0089580818823C9F08130D8
:1000B00031F0823039F0833059F0862F0895108264
:1000C000862F089583E0808321833283862F0895CD
:1000D00081819281281B390B862F2032310508F44B
:1000E0000895108282E00895CDB7DEB76E97CDBF38
:1000F000DEBFE0E8F0E082E08183808791E09187D5
:1001000081B980B9E0E0F4E08BE0828B89E0838BF9
:10011000878B90934701E0E4F1E0818980FDFDCF7A
:1001200081E080935201E0E4F1E0818980FDFDCF20
:1001300089E180935001E0E4F1E08189282F21706A
:100140002A8B80FDFACF88E080931604E0E0F8E087
:100150002CE635E02087318798EC958398ED9683DF
:1001600090E19093A000E0E0F6E094E0908392E5C7
:10017000928390E2938385838DE1868319821A822C
:100180001B821C821D821E821F8218861986109275
:100190000C3F78943A893F8B3E8B3D8B3C873B8765
:1001A000632E232E398B3A87332E3D87532E732EA1
:1001B000132F3E8F188E198E1E861F86912C812C30
:1001C0001B8A1C8A1A8E1B8E1C8E1D8E44244394FF
:1001D000A12C6894BB24B2F8388B0F2EC12CF6E00A
:1001E000DF2EF02DC3C1842D611080E0662049F020
:1001F000470192EA891A99E1990A682EE5E0EA87AF
:10020000C8C1682EC6C11092003FFD85F111CAC158
:1002100021E02C874D86C6C1282ECDC188859985C1
:10022000F701E81BF90BCF018A3A934008F4C9C1E2
:1002300024E02F83511002C031E03B87F501828911
:10024000847F828B029A3888EE86FF86542CBBC14D
:100250003320D1F0F50182898860828B02988BE18E
:100260008A95F1F782B1F82FF4703F2E82FF15C006
:10027000F50182898360828B1F82FA89FB87388827
:10028000EE86FF86532C9FC1C7012E853F85821BBA
:10029000930B8D379105F0F696C1F5018289877F22
:1002A000828B029AEE86FF868EC1133009F05DC103
:1002B000772009F4CCC1C70188199909CF9708F4B0
:1002C000C6C1FA85FF2351F0C701E88DF98D8E1B59
:1002D0009F0B78888933914008F4C7C17C847628C5
:1002E0007228FB857F2A09F053C0F89480910D3F56
:1002F00081112DC09F819B7F09F589818D7F813080
:1003000071F18C818D7F813031F0552031F081E7A2
:100310008093500104C0892F11C01092500188EDC4
:1003200084BF8BE0809361008091510180FDFCCF00
:1003300088ED84BF81E180936100842D95E0E0E544
:10034000F0E0908378948895342C81110AC07894D9
:100350007C867B86672C272C7A86172D06C1892FF1
:10036000EDCF99E190935001F89498ED94BF9BE004
:100370009093610078949091510190FDFCCFF89496
:1003800098ED94BF91E1909361007894382EDFCF7F
:10039000F6018081816080834086F601108511110D
:1003A000FCCF908980818E7F8083963458F0903581
:1003B00040F01C871B87612E212E1A871D87712E06
:1003C000D4C01D878091003F811101C0798A0998AE
:1003D00010920A3F1F8B1E8B1D8B712E4701F894C4
:1003E00080910A3F81110FC080910D3F81110BC098
:1003F00080910C3F813009F440C083E0E0E5F0E0FB
:100400008083789488957894F989FF2349F0C7010F
:10041000881999094E9720F01092003F2889298B5E
:1004200080910A3F142D882309F49FC0F89400910D
:100430000B3F10920A3F7894102F1770069506957F
:100440000695133009F4F4C0143009F456C0113085
:10045000C1F048E050E06FE370E082E09FE38DD1AF
:10046000E2E0FFE3118302831092013F80910508CF
:10047000806280930508142D78C0E0E5F0E04082AA
:10048000C0CFE2E0FFE382E080833D8D31838C8D3D
:1004900082839B8D93832A8D24833C8935838B892A
:1004A00086839E8D20E0911101C020E29091003F53
:1004B000E0E19E9FC0011124962D990F982B8C8509
:1004C000880F880F982B822D880F880F880F892B13
:1004D000FB858F2B822B8093093F1092013F8091E7
:1004E00005088062809305082C852F8BFE8B2D8A52
:1004F0003A893C873B87232E38C00230F9F08A8D39
:100500009B8D8F3F980719F001968A8F9B8F611002
:1005100003C0FA85FF5FFA872A85253008F08EC070
:100520003D89232A8C859F89892B8C87EB85FE89C1
:10053000EF2BEB87E88EF98E12E017C08C8D9D8D26
:100540008F3F980719F001968C8F9D8FFE8DFF5F6E
:10055000FE8FFA3008F46EC02A892A87102F2E8F5A
:1005600004C0099A4701742C13E0A895F8941092DE
:100570000D3F02B10095E0900E3FF0900F3F789450
:10058000602F6870A701CE0101966ADD813009F401
:100590002ACEA701602F6078CE01049661DD8230FB
:1005A00009F431CE0470A701602FCE01079658DD03
:1005B000813009F431CE002321F08F81823009F49B
:1005C0002DCE511045CE123061F208F06ECE1123BF
:1005D00009F484CE611003CFC701881999098C34BE
:1005E0009D4108F4FCCE099A2B893C892F3F3207A4
:1005F00021F02F5F3F4F2B8B3C8B9A859F5F9A8713
:10060000953070F4ED892E2AFC852F89F22BFC871A
:100610003B858E89382B3B87E88EF98E12E0A5CF7B
:100620006C866B86262CE88EF98E6A8612E09DCF4A
:10063000142D9BCF2A892A87102F97CF3A893C8780
:100640003B87232EE88EF98E3A8712E08ECF8A857B
:10065000882359F0C701288D398D821B930B89336C
:10066000914018F0772009F439CEF89480910D3F2D
:10067000811106C085E0E0E5F0E0808378948895FC
:10068000789473CF8F938CE883B981E080930D3F8A
:100690008F9118951F921FB61F9211248F939F93CD
:1006A0009091000880910C3F811105C090930B3F01
:1006B00081E080930A3F9F918F911F901FBE1F90F2
:1006C00018951F921FB61F9211248F9380E4809378
:1006D00004088091013F883010F010920C3F8F91F8
:1006E0001F901FBE1F9018958F938FB78F93EF9316
:1006F000FF938091013F8830C8F481E080930C3FE4
:10070000E091013FF0E0EE5FF04C808180930208C1
:100710008091013F8F5F8093013F8091013F88303E
:1007200028F0E0E0F8E085818F7D8583FF91EF91EF
:100730008F918FBF8F9118952F932FB72F938F93F2
:100740009F9321E02093530180910E3F90910F3FA2
:10075000019680930E3F90930F3F20930D3F9F9102
:100760008F912F912FBF2F9118958F9381E08093B8
:100770008A008093003F8F911895DC0101C06D9332
:0C07800041505040E0F70895F894FFCF7E
:00000001FF
